:03000000020006F5
:03005F0002000399
:030003000201A453
:20006200AE82AF837C007D00C3EC9EED64808FF063F08095F0501D7A007B00C3EA94F4EBAC
:200082006480948150070ABA00F10B80EE0CBC00D70D80D422AF82C2848FC1E58630E1FB80
:2000A2005386FD8511C1E58630E1FB5386FDD2842285820A85830B85F00CC3740895087457
:2000C200808509F063F08095F05006750808750900E50824FFFBE50934FFFCE4F50DF50E5E
:2000E20078007A00C3E89508EA64808509F063F08095F0400122C3E89BEA64808CF063F0DA
:200102008095F05054740128F9E43AFFE9250AF9EF350BFFAE0C89828F838EF012034CF993
:20012200B92E36A90D7408C399F9E8250AFDEA350BFEAF0C8D828E838FF012034CF50F75A9
:2001420010018982C004C003C002C000120335D000D002D003D0048041E8250AFDEA350BE6
:20016200FEAF0C8D828E838FF012034CFFBF2E028020A90D7408C399F5828F0F751000C04E
:2001820004C003C002C000120335D000D002D003D004050DE4B50D02050E08B800010A02E7
:2001A20000E653F4F6D290C29343FE0974FE55F14402F5F153FF3F74EF55F3442CF5F3435E
:2001C200FD1053BEFBE5BE30E6FB53C6B8E5C620E6FB43BE0453865F75C23C74E055C54471
:2001E2000FF5C543C5E075110075820F12009775110075820912009775110775820B120047
:200202009775110875820A12009775110175820C1200971202B67508057509009003D87530
:20022200F0801200B39013881200621202B67508067509009003DE75F0801200B3901388D7
:200242001200621202B67E007F00B293750F20751000758201C007C006120335D006D00777
:200262007C017D00C3EC9409ED6480948050268C828E0374302BF50F751000C007C006C097
:2002820005C004120335D004D005D006D0070CBC00D20D80CF9001F4C007C006120062D0A7
:2002A20006D0070EBE00010FBE0A9FBF009C7E007F0080967F017511008F82C00712009727
:2002C200D0070FBF090040EE22AF827E00E51160027E01BF2300400DEF24D340088F057433
:2002E2000D2DFF7E017D00ED75F002A4FBACF0246CF582EC3403F583E493FA6032EFB502ED
:200302002BEE6016EB246CF9EC3403FA89828A83A3E493FA74804AF58222EB246CFBEC3422
:2003220003FC8B828C83A3E493F582220D80B875820022AF82851011850F82C0071202CBFC
:0A034200858211D0078F8202009718
:20036C004177421F434E443D454F4647475E483749304A3C4C0E4E764F7E50675205535B5B
:20038C00540F553E59275B4E5D785F086177621F630D643D654F6647675E681769106A3CC8
:2003AC006C0E6E156F7E70677205735B740F751C79272D002000307E3130326D3379343369
:1903CC00355B365F3770387F397B000048454C4C4F0032352E3637430028
:06003500E478FFF6D8FD9F
:200013007900E94400601B7A009003E578007593F0E493F2A308B800020593D9F4DAF275D6
:0200330093FF39
:20003B007800E84400600A79007593F0E4F309D8FC7800E84400600C790090F000E4F0A3F2
:04005B00D8FCD9FAFA
:0D000600758111120368E58260030200039A
:1C034C0020F71430F6148883A88220F507E6A88375830022E280F7E49322E022C0
:040368007582002278
:00000001FF
