:2000A500AE82AF837C007D00C3EC9EED64808FF063F08095F0501D7A007B00C3EA94F4EB69
:2000C5006480948150070ABA00F10B80EE0CBC00D70D80D42275080375090012070FAE8225
:2000E500AF837C007D00C3EC9EED64808FF063F08095F050070CBC00ED0D80EA22AE82AF57
:2001050083ADC674C755C64438F5C675CBFCD2BB8E088F09900006C0051206ADAE82AF83DE
:20012500D0057B007C00C3EB9EEC64808FF063F08095F0500CC2D830D8FD0BBB00E80C80C6
:09014500E575CB008DC6C2BB229A
:04000000020049327F
:01000B0032C2
:0100130032BA
:01001B0032B2
:0100230032AA
:01002B0032A2
:01003300329A
:01003B003292
:030043000206159D
:0300A20002004613
:0300460002014E66
:20014E0053F3FD53FDFD438F0253F4F743FE08D29390F19CE4F0A3F090F19CE0FEA3E0FF40
:20016E00EE24D0FCEF34F0FDEE30E0067EA57F0080047EB57F008C828D83EEF090F19CE0AE
:20018E00FEA3E0FFEE2408F582EF34F0F583E4F090F19CE02401F0A3E03400F090F19CE02B
:2001AE00FEA3E0FFC3EE94C8EF940040AB74FE55F14402F5F143F33C53BEFBE5BE30E6FB20
:2001CE0053C6B8E5C620E6FB43BE0475C22274E055C5440BF5C543868053C4FE43C4025305
:2001EE00C4FB53C4F753C4EF53C4DF53C4BF53C5DF75084B750907750A80750B0C750C0002
:20020E0090F0D075F00012063D7509D0750AF0750B00750801750C0C750D0090F1A675F070
:20022E000012023CB2939003E81200A580C385820E85830F85F01074012509FAE4350AFB3A
:20024E008A008B018900850E82850F838510F0E81206927401250EF8E4350FF9AF10888224
:20026E0089838FF0EA1206927402250EFDE4350FFEAF107BC17CDF8C038D828E838FF0EB16
:20028E001206927403250EFDE4350FFEAF107CC18D828E838FF0EC1206927404250EFDE41C
:2002AE00350FFEAF10AB0CAC0D1BBBFF011C8C0353031F8D828E838FF0EB541FC0F0C0E07C
:2002CE001206F3D0F054E045F0D0F01206927405250EFDE4350FFEAF10AC0C1C8D828E83F0
:2002EE008FF0EC1206927404250EFDE4350FFEAF108D828E838FF01206F3541F1206927413
:20030E0006250EFDE4350FFEAF108D828E838FF01206F3547F1206927406250EFDE4350FBB
:20032E00FEAF108D828E838FF01206F3549F1206927406250EFDE4350FFEAF108D828E83FC
:20034E008FF01206F354E0440F1206927407250EFDE4350FFEAF108D828E838FF01206F39A
:20036E00543F44401206927407250EFDE4350FFEAF108D828E838FF01206F354CF120692A7
:20038E007407250EFDE4350FFEAF108D828E838FF01206F344081206927407250EFDE4355B
:2003AE000FFEAF108D828E838FF01206F354FB1206927407250EFDE4350FFEAF108D828E93
:2003CE00838FF01206F354FC12069274FF2508400BAD0EAE0F8ED5850ED48009AD0EAE0FDA
:2003EE008ED3850ED2AF088FF005F07401800225E0D5F0FB541FF5D6000000000000000004
:20040E000000000000000000000000000000000000000000000000000000000000000000CE
:20042E000000000000D2AFD2B8C2C0AD09AE0AAF0B8D828E838FF01206F3F5C122AD82AE9A
:20044E0083AFF074022DFAE43EFB8F04A90A89008A828B838CF0E812069274032DFAE43EFB
:20046E00FB8F04A9098A828B838CF0E91206927BC17CDF8C038D828E838FF0EB1206927437
:20048E00012DFAE43EFB8F0479C18A828B838CF0E912069274042DFAE43EFB8F04A90D53BB
:2004AE00011F8A828B838CF0E9541FC0F0C0E01206F3D0F054E045F0D0F012069274052D88
:2004CE00FAE43EFB8F04A90C8A828B838CF0E912069274042DFAE43EFB8F048A828B838C91
:2004EE00F01206F3541F12069274062DFAE43EFB8F048A828B838CF01206F3547F12069267
:20050E0074062DFAE43EFB8F048A828B838CF01206F3549F12069274062DFAE43EFB8F04ED
:20052E008A828B838CF01206F354E0440E12069274072DFAE43EFB8F048A828B838CF012E2
:20054E0006F3543F12069274072DFAE43EFB8F048A828B838CF01206F354CF441012069243
:20056E0074072DFAE43EFB8F048A828B838CF01206F3440812069274072DFAE43EFB8F0432
:20058E008A828B838CF01206F354FB12069274072DFAE43EFB8F048A828B838CF01206F3C0
:2005AE0054FC12069274FF2508400A8D038E048CD58DD480088D038E048CD38DD2AF088FB7
:2005CE00F005F07401800225E0D5F0FB541FF5D6000000000000000000000000000000002E
:2005EE000000000000000000000000000000000000000000000000000000000000D2AFD29A
:20060E00B8C2C043864022C0E0C082C083C2C0E5D130E00C90F1AE7401F053D1FE43D6011E
:0F062E00E5D130E10353D1FDD083D082D0E0324B
:0E074B0048656C6C6F20576F726C6421000162
:06007800E478FFF6D8FD5C
:20063D00AD82AE83AFF08D0D8E0E8F0F850810850911850A12A80BA90C8803890418B8FF9E
:20065D000119EB4C60258510828511838512F01206F3FCA38582108583118D828E838FF077
:15067D00EC120692A3AD82AE8380CE850D82850E83850FF022B1
:200056007901E94400601B7A0190075878AE7593F1E493F2A308B800020593D9F4DAF2756B
:0200760093FFF6
:1B06920020F71130F6138883A88220F509F6A8837583002280FEF280F5F02267
:1D06AD00E5828508F0A4C582C0F08509F0A4D0F025F0C5838508F0A42583F583220F
:20007E007800E84400600A79007593F0E4F309D8FC78AEE84401600C790290F000E4F0A3FE
:04009E00D8FCD9FAB7
:2006CA007A10E4FBFCE58225E0F582E58333F583EB33FBEC33FCEB9508F5F0EC9509400644
:0906EA00FCABF0438201DADD22D1
:0D004900758112120747E582600302004630
:1C06F30020F71430F6148883A88220F507E6A88375830022E280F7E49322E02216
:20070F00C2D5E58330E70DD2D5E4C39582F582E49583F583E50930E70DB2D5E4C39508F585
:18072F0008E49509F5091206CA30D50BE4C39582F582E49583F583226D
:040747007582002295
:00000001FF
