:03000000020006F5
:09005F0075080075090002000398
:03000300020DDA11
:2000680085822A85832B90F02CE0FCA3E0FD1CBCFF011D7A007B00C3EA9CEB64808DF0632A
:20008800F08095F0503CEA252AF8EB352BF988828983E0FF8F2CEC252AF52DED352BF52EE5
:2000A800852D82852E83E0FF88828983F0852D82852E83E52CF00ABA00010B1CBCFF011DB9
:2000C80080B522AF83E58290F032F0EFA3F090F02EE0FEA3E0FF7C007D0090F032E0FAA3CE
:2000E800E0FB4A605AEC2EF50BED3FF50C0CBC00010D752A0A752B008A828B83C007C0060C
:20010800C005C004C003C00212163CA882D002D003743028850B82850C83F0752A0A752B6B
:20012800008A828B831216B2E5828583F0D004D005D006D00790F032F0E5F0A3F0809B8E5B
:20014800028F0390F030E0F8A3E0F9C3EC98ED648089F063F08095F05012EC2AF582ED3BFF
:20016800F5830CBC00010D7430F080DF90F02CECF0EDA3F08E828F83C005C004120068D039
:2001880004D00590F02EE0FEA3E0FFEC2EF582ED3FF583E4F08C828D8322AF82AE83ADF028
:2001A800FC90F036EFF0EEA3F0EDA3F0ECA3F090F034E0FEA3E0FFC374049E74808FF06363
:2001C800F08095F0500990F0347404F0E4A3F090F03AE4F0A3F090F036E0FCA3E0FDA3E080
:2001E800FEA3E0FFC007C006C005C004E4C0E0C0E0C0E0C0E08C828D838EF0EF121320AB82
:2002080082E58124FCF581D004D005D006D007EB601990F036ECF0EDA3F0EEA3F0EFB2E783
:20022800A3F090F03A7401F0E4A3F090F036E0FCA3E0FDA3E0FEA3E0FF8C828D838EF0C01C
:2002480007C006C005C00412155285820F858310121586A882A983AAF0FBD004D005D00682
:20026800D007C000C001C002C0038C828D838EF0EF12112D85821185831285F013F514E516
:200288008124FCF58190F02EE50DF0E50EA3F090F030E4F0A3F0850F828510831200CBAA5D
:2002A80082AB8390F034E0F8A3E0F948700122EA250DFAEB350EFB8A828B83742EF08882AE
:2002C8008983C003C002C001C00012158685821A85831B85F01CF51D90000075F0207441A6
:2002E80012136DAC82AD83AEF0FFC004C005C006C0078511828512838513F0E51412113845
:20030800AC82AD83AEF0FFE58124FCF5818C828D838EF0EF121552AE82AF83D000D001D007
:2003280002D00390F02E74012AF0E43BA3F090F030E8F0E9A3F08E828F831200CB90F03A34
:20034800E0F5F0A3E045F06047AD0DAE0E7F008D828E838FF0121608AE82AF83EF20E7272E
:2003680074012EFCE43FFDEC250DFCED350EFDEE250DF582EF350EF583E0FB8C828D83F045
:200388001EBEFF011F80D5850D82850E83742DF022AE82AF83C007C006120F7B7582801214
:2003A8000FC3AD827582E7C005120FC3AC82D005EC4205C005120F7B758281120FC3AC828C
:2003C800D005D006D007EC420575190190F0617432F08E828F83C005121078AF82D005EFE4
:2003E8004205C005120F9FD0058D8222AE82AF83C007C006120F7B758280120FC3AD827599
:2004080082E6C005120FC3AC82D005EC4205758280C005120FC3AC82D005D006D007EC428F
:20042800058E828F83E0F582C005120FC3AF82D005EF4205C005120F9FD0058D8222120FA5
:2004480022120F28120F2E75820A120E00120F3175820A020E00AF83E58290F03EF0EFA37D
:20046800F090F040E4F090F03EE0F52AA3E0F52B90F03CE0FD7C00C3EC9D504DEC252AF562
:2004880082E4352BF583E0FB90F040E06BF07B0890F040E0FA30E725C0058A01E929F990FC
:2004A8001B43E493F8740193FDE93395E0FFE96200EF620590F040E8F0D0058007EA2AFA2F
:2004C80090F040F0DBCA0C80AE90F040E0FF90F03DE0FEEFB5060280047582042275820007
:2004E80022120F2E120F31120F2875820A120E00120F2275820A020E00AF83E58290F04119
:20050800F0EFA3F090F041E0FEA3E0FF5306FC90F041EEF0EFA3F090F041E0FEA3E0FF8E1B
:20052800828F83121593AC82AD83AEF0FFC004C005C006C00790000075F0FA743A1211385C
:20054800AC82AD83AEF0FFE58124FCF581E4C0E0C0E074C0C0E0C0E08C828D838EF0EF1267
:2005680014B0AC82AD83AEF0FFE58124FCF5818C828D838EF0EF22AF83E58290F043F0EFD0
:20058800A3F090F043E0FEA3E0FF5306FC90F043EEF0EFA3F090F043E0FEA3E0FF8E828F63
:2005A80083121593AC82AD83AEF0FFC004C005C006C00790B85275F02F743B121138AC827F
:2005C800AD83AEF0FFE58124FCF5817466C0E0C0E0743BC0E074C2C0E08C828D838EF0EF80
:2005E8001214B0AC82AD83AEF0FFE58124FCF5818C828D838EF0EF2285823085833185F094
:20060800327401252BFAE4352CFB8A008B0189008530828531838532F0E81213057401253F
:2006280030F8E43531F9AF32888289838FF0EA12130574022530FDE43531FEAF327BC17C14
:20064800DF8C038D828E838FF0EB12130574032530FDE43531FEAF327CC18D828E838FF0A2
:20066800EC12130574042530FDE43531FEAF32AB2EAC2F1BBBFF011C8C0353031F8D828E22
:20068800838FF0EB541FC0F0C0E0121620D0F054E045F0D0F012130574052530FDE4353132
:2006A800FEAF32AC2E1C8D828E838FF0EC12130574042530FDE43531FEAF328D828E838F06
:2006C800F0121620541F12130574062530FDE43531FEAF328D828E838FF0121620547F127C
:2006E800130574062530FDE43531FEAF328D828E838FF0121620549F12130574062530FD15
:20070800E43531FEAF328D828E838FF012162054E0440F12130574072530FDE43531FEAF4C
:20072800328D828E838FF0121620543F444012130574072530FDE43531FEAF328D828E8341
:200748008FF012162054CF12130574072530FDE43531FEAF328D828E838FF0121620440854
:2007680012130574072530FDE43531FEAF328D828E838FF012162054FB1213057407253021
:20078800FDE43531FEAF328D828E838FF012162054FC12130574FF252A400BAD30AE318E73
:2007A800D58530D48009AD30AE318ED38530D2AF2A8FF005F07401800225E0D5F0FB541F2A
:2007C800F5D600000000000000000000000000000000000000000000000000000000000046
:2007E800000000000000000000000000000000D2AFD2B8C2C0AD2BAE2CAF2D8D828E838F27
:20080800F0121620F5C12274FE55F14402F5F143F33C53BEFBE5BE30E6FB53C6B8E5C6200E
:20082800E6FB43BE0475C22274E055C5440BF5C543868053C4FE43C40253C4FB53C4F75320
:20084800C4EF53C4DF53C4BF53C5DF7F00EF2418FDE434F0FE8D828E83E060060FBF140025
:2008680040EB8F061EEE3395E0FDEE2418F582ED34F0F583740AF0752B18752CF0752D007C
:200888008F2E752F00752A0190F01075F00012060090000022AF8290F046E4F090F045748C
:2008A80080F090F045E05F7009C007120F2ED0078007C007120F22D007758201C007120E0F
:2008C80000120F28758205120E00120F31758201120E00D00790F045E0C313F0E070C312DA
:2008E8000F22120F28758201120E00120F3AAF82BF010690F0467401F0120F317582141272
:200908000E0090F046E0F58222AF8290F048E4F0C007120F22D00790F0477480F0C0071250
:200928000F28758201120E00758203120E00120F3AAE82D007BE010B90F047E0FE90F048AD
:20094800E04EF0C007120F31758201120E00D00790F047E0C313F0E070C38F82120F4E75F4
:200968008201120E00120F28758205120E00120F31120F22758214120E0090F048E0F58288
:2009880022AF82C00712044675828012089DAE82D00790F04BEEF0BF00028005BF0128804D
:2009A800147582E5C00612089DAF82D00690F04BEF4EF080127582E3C00612089DAF82D0D9
:2009C8000690F04BEF4EF012044675828112089DAF8290F04BE04FF0120F287E007F0075B0
:2009E80082E8C007C006120E00120F41AD82D006D007BD010280120EBE00010F8E048F0546
:200A0800C3EC94E8ED940340D6120F41E582700890F04BE043E002F0758200120911AF82B4
:200A280090F049EFF0758200120911AF8290F04AEFF0AD15AE1690F049E0FBE4FCFAEF42D4
:200A480004EA42038D828E83ECF0EBA3F0758201120911AF8290F03C7402F090F03DEFF0CE
:200A680090F04912045EAF8290F04BE04FF01204E990F04BE0F58222AF82C007120446750A
:200A8800828012089DAE82D00790F04EEEF0BF00028005BF012880147582F5C00612089DB7
:200AA800AF82D00690F04EEF4EF080127582F3C00612089DAF82D00690F04EEF4EF07E00B3
:200AC8007F00C007C006120446758210120E00D006D0078E048F050EBE00010FC3EC941479
:200AE800ED94005015758281C007C00612089DAD82D006D007BD010280C8C3EE9414EF948C
:200B080000400890F04EE043E002F0758200120911AF8290F04CEFF0758200120911AF826F
:200B280090F04DEFF0758201120911AF82AD17AE1890F04DE0FC90F04CE0FA7B008C017C4F
:200B480000E94203EC42028D828E83EBF0EAA3F090F03C7402F090F03DEFF090F04C120417
:200B68005EAF8290F04EE04FF01204E990F04EE0F5822290F050E4F090F051F0A3F090F033
:200B880053F0A3F090F055F0A3F0A3F0A3F090F059F0A3F0A3F0A3F0120F7575820F120EBB
:200BA80000120F7B758280120FC3AF827582FEC007120FC3AE82D007EE4207C007120F7BC4
:200BC800758280120FC3AE82D007EE42077582E7C007120FC3AE82D007EE4207C007120FC5
:200BE8007B758281120FC3AE82D007EE420775190190F0617432F090F050C007121078AEF3
:200C080082D00790F04FEE4FF090F050E0FFBF0202800690F04F7401F075820F120E009095
:200C2800F05D120399AF8290F04FE04FF090F05D1203F4AF8290F04FE04FF0E0FFE0701747
:200C48007515517516F0F582C007120989AE82D00790F04FEE4FF090F04FE0FFE0701875C6
:200C680017537518F0758201C007120A80AE82D00790F04FEE4FF0120F7B758280120FC330
:200C8800AF8290F04FE04FF07582FE120FC3AF8290F04FE04FF0C287C28690F04FE0FFE016
:200CA800702890F053E0FDA3E0FE8D828E83C00712057FAB82AC83ADF0FED00790F059EB54
:200CC800F0ECA3F0EDA3F0EEA3F0EF702490F051E0FEA3E0FF8E828F83120501AC82AD8350
:200CE800AEF0FF90F055ECF0EDA3F0EEA3F0EFA3F090F04FE06033752A45752B1B752C8019
:200D0800752D05752E0090F01875F000121209E4F52AF52BF52C752D0FF52E90F01D75F03D
:200D28000012120912080F020DD6E4F52AF52BF52C752D14F52E90F01875F0001212099099
:200D4800F02BE4F0752A4B752B1B752C80752D02F52E90F01875F00012120990F055E0FC34
:200D6800A3E0FDA3E0FEA3E0FF74022418F50DE434F0F50E90F0347402F0E4A3F08C828DFD
:200D8800838EF0EF1201A2752A4E752B1B752C80752D03752E0090F01E75F00012120990D5
:200DA800F059E0FCA3E0FDA3E0FEA3E0FF74092418F50DE434F0F50E90F0347402F0E4A31C
:200DC800F08C828D838EF0EF1201A212080F75820022752A52752B1B752C80752D0B752E7C
:180DE8000090F01875F00012129112080F120B7B9007D0120E3E80F546
:1B1B430031014552524F5200483D0020543D005374617274696E672E2E2E00BF
:200E0000E58290F05EF0E0FF7D007E008F2A752B00900014C007C006C005121350AB82AC26
:200E200083D005D006D007C3ED9BEE64808CF063F08095F050070DBD00D20E80CF22AE821A
:200E4000AF837C007D00C3EC9EED64808FF063F08095F0501D7A007B00C3EA94F4EB64800C
:200E6000948150070ABA00F10B80EE0CBC00D70D80D422752A03752B001216B2AE82AF8338
:200E80007C007D00C3EC9EED64808FF063F08095F050070CBC00ED0D80EA22E582FF7001E8
:200EA000227E008F04EE5401A2E0CC13CC13CCFD7B007A008F2A8E2B90003BC005C004C038
:200EC00003C002121350AE82AF83D002D003D004D0058E00EFF93395E0FEFFE82CF8E93DDB
:200EE000F9EE3BFEEF3AFFE5C65403FD8DF005F0AC00AD01800DC3EF13FFEE13FEED13FD92
:200F0000EC13FCD5F0F08C008D018E028F031CBCFF091DBDFF051EBEFF011FE8494A4B70F6
:020F2000E522C8
:200F2200D28685FDFD22D28785FDFD22C28622C2872243FD40C28622A286E433F58222A283
:200F420087E433F5822243FD80C28722E58224FF928622D28643FD4022D28743FD8022C272
:200F62008622C28722A286E433F58222A287E433F58222120F55020F5B120F557582011249
:200F82000E00120F5B758201120E00120F6175820A120E00120F6475820A020E00120F64EF
:200FA200758201120E00120F61758201120E00120F5B75820A120E00120F5575820A020E59
:200FC20000E58290F05FF07F007E80E0FDED5E7011C007C006C005120F61D005D006D0075D
:200FE200800FC007C006C005120F55D005D006D007758201C007C006C005120E00120F5B30
:20100200758205120E00120F64758201120E00D005D006D007EEC313FE70B2C007120F5572
:20102200120F5B758214120E00120F67E582D00760027F01C007120F64758214120E00D018
:20104200078F8222E58290F060F0E0FFC007120F6EE582D007701B8F061F90F060EFF0EEBE
:201062007004758202227582E8C007120E00D00780DA75820022AE82AF83E4F0C007C0060C
:20108200120F55D006D0077D8090F061E0FCC007C006C005C004120F5B758201120E00D0F7
:2010A200048C82C004121046AB82758203C003120E00120F67E582D003D004D005D006D0D5
:2010C20007600F8E828F83E0FAED42028E828F83EAF0C007C006C005C004C003120F64759C
:2010E2008201120E00D003D004D005D006D007EDC313FD7099E5197009C003120F61D003CA
:201102008007C003120F55D003758201C003120E00120F5B758205120E00120F64120F55CC
:0B112200758214120E00D0038B822295
:0B112D00A8811818C6B2E7C60214B073
:201138001211DBBC00030215C0EF60FA30D502B2D1E583B4FF030215D6E582B4FF030215F1
:20115800D6258340072482400B0215C024831450030215D6F582EA8DF0A4A8F0EA8EF0A4C9
:2011780028F8E435F0F9EB8DF0A428E935F0F9E433CA8FF0A429F9EA35F0FAEBF88EF0A4C6
:2011980029F9EA35F0FAE433FBEC8DF0A429F9EA35F0FAE43BFBE88FF0A42AFAEB35F0FB6E
:2011B800E433CCFD8EF0A42AFAEB35F0FBE43CFCED8FF0A42BFBEC35F0FC20E70312125EFB
:0311D80002159F5E
:2011DB00AA82AB83A2F73392D1F5826002D2F7ACF0E58124F9F8E6FD08E6FE0886F008E677
:0E11FB00A2F73392D5F5836002D2F7AFF0224F
:06003500E478FFF6D8FD9F
:20120900AD82AE83AFF08D2F8E308F31852A32852B33852C34A82DA92E8803890418B8FF50
:201229000119EB4C60258532828533838534F0121620FCA38582328583338D828E838FF0B8
:15124900EC121305A3AD82AE8380CE852F828530838531F022F3
:20125E007804EC7011E58224F8500AF582E4C9CACBFCD8EF22EC7820058220E713D582018F
:13127E0022C3E933F9EA33FAEB33FBEC33FCD8EA1582229D
:200013007900E94400601B7A00901BD678627593F0E493F2A308B800020593D9F4DAF2756B
:0200330093FF39
:20129100AD82AE83AFF08D2F8E308F31A82DA92E852A32852B33852C34E849602F853282B6
:2012B1008533838534F0121620F535601F18B8FF01190532E4B5320205338D828E838FF084
:2012D100E535121305A3AD82AE8380CD8803890418B8FF0119EB4C60118D828E838FF0E43D
:1412F100121305A3AD82AE8380E2852F828530838531F02224
:1B13050020F71130F6138883A88220F509F6A8837583002280FEF280F5F022E7
:20132000FFA8811818121527D2D133E6400730E70B7582002220E70675820122C2D11215E8
:1013400009E97003F5822220D101B3E433F582224A
:1D135000E582852AF0A4C582C0F0852BF0A4D0F025F0C583852AF0A42583F58322F9
:20136D00AC82AD83AEF0FF851AF0E51B42F0E51C42F0E51D547F45F0700990000075F08079
:20138D00743F22C007C006C005C004E4C0E0C0E07480C0E0743FC0E0851A82851B83851C65
:2013AD00F0E51D121892AB82E58124FCF581D004D005D006D007EB60088C828D838EF0EF15
:2013CD0022C007C006C005C004C004C005C006C007900000E4F5F0121320E58124FCF58118
:2013ED00D004D005D006D007E5827007900000E4F5F0228C828D838EF0EF1216EAAC82ADB9
:20140D0083AEF0FFC01AC01BC01CC01D8C828D838EF0EF121138AC82AD83AEF0FFE58124C6
:0D142D00FCF5818C828D838EF0EF0218A7F4
:20143A00E52A452B60467A01E52A25E0F52AE52B334012F52BE582952AE583952B40030A6F
:20145A0080E6C3E52B13F52BE52A13F52AC3E582952AF5F0E583952B4005F58385F082C358
:0D147A00E52B13F52BE52A13F52ADAE12204
:20003B007800E84400600A79007593F0E4F309D8FC7862E84400600C790190F000E4F0A38F
:04005B00D8FCD9FAFA
:201487007A10E4FBFCE58225E0F582E58333F583EB33FBEC33FCEB952AF5F0EC952B400635
:0914A700FCABF0438201DADD2206
:2014B0001211DB7900E583B58202800D50031215EEE583C395821217F4E5D0C465D020E101
:2014D00017EA2DFAEB3EFBEC3FFC500974011217F4EC4480FC02159FC3EA9DFAEB9EFBEC88
:1914F0009FFC500FC3E499F9E49AFAE49BFBE49CFCB2D112125E02159F87
:201509007901AA82E68F82B5821318E6B5F00E18E6B5830918E68A82B58202790022B480D9
:201529000FE5F0700AE5837006E58270027F00EFB6801518B6001018B6000B18B600060841
:09154900080876002208080822B7
:20155200121837700AE582458345F0700122E430D112F4700BE5F0F47006E58330E7012260
:1415720090800022700AE5F07006E58320E70122907FFF22AC
:0D158600AC83AB827A007900748E02167B74
:0C159300E4AC83AB82FAF9748E0216A857
:20159F00B98003EA13B34010EA2401FAE43BFBE43CFC50047C800582BC000EBB000BBA0090
:2015BF0008E4F5F0F583F58222A2D1E582138CF092F78B838A8222E4F583F58275F080F450
:0F15DF00A2D11322E4F583F58275F0C0747F2248
:1A15EE00E582C583F582A2D133A2D592D11392D5ECCFFCEBCEFBEACDFA2285
:18160800AA82AB831216206003A380F8C3E5829AF582E5839BF58322D2
:0D0006007581351218A3E582600302000326
:1C16200020F71430F6148883A88220F507E6A88375830022E280F7E49322E022D9
:20163C00C2D5E58330E70DD2D5E4C39582F582E49583F583E52B30E70BE4C3952AF52AE480
:16165C00952BF52B12143A30D50BE4C39582F582E49583F583225D
:20167200FCABF0AA83A982749EF582C2D1EC30E716D2D1E9F42401F9EAF43400FAEBF43477
:0D16920000FBECF43400FC12125E02159F08
:13169F00FCABF0AA83A982749EC2D1F58212125E02159FF5
:2016B200C2D5E58330E70DD2D5E4C39582F582E49583F583E52B30E70DB2D5E4C3952AF58F
:1816D2002AE4952BF52B12148730D50BE4C39582F582E49583F583228A
:2016EA00121A3430D1061215E30217B2BC0008D2D11215D60217B2C082740379001217F426
:20170A00E4F521F522F523F524901B5EF88C078B068A0589F0E81217B3E925F0EA3DEB3E3E
:20172A00EC3F54E07028E925F0F9EA3DFAEB3EFBEC3FFCE4932521F5217401933522F522FC
:20174A007402933523F5237403933524F524A3A3A3A308B81EB7AC24AB23AA22A92175823E
:20176A0081D2D112125ED0E0B47E051215B7803840062482C2D58005F4247FD2D5F81215D7
:20178A00EE741888F0A4F9AAF074B188F0A4FBACF0747288F0A42AFAE5F03BFBE43CFC757C
:0917AA00828612125E1214B322B1
:2017B30024F850228DF0AD06AE077F0024F850168DF0AD067E0024F8500C8DF07D0024F866
:2017D300500475F0002224086016C000F8C3EF13FFEE13FEED13FDE5F013F5F0D8EFD0009D
:0117F30022D3
:201B5E00FF422E16F691F90CF2FD2307EEE0C4030CA3F001D814FC00A3027F0055C03F00A8
:201B7E000BF01F0001FC0F0000FF0700C0FF0300F0FF0100FCFF0000FF7F000000400000B0
:201B9E00002000000010000000080000000400000002000000010000800000004000000028
:181BBE00200000001000000008000000040000000200000001000000D0
:2017F4006040F82582500274FFF582E824F8501ECCCBCAF9E4CC24F85014CBCAF9E4CB24FD
:20181400F8500BCAF9E4CA24F8500379002224086010F8C3EC13FCEB13FBEA13FAE913F9AF
:03183400D8F122C6
:20183700121A34C3749E9582403979001217F430D126E9F42401F582EAF43400F583EBF42D
:201857003400F5F0ECF43400700AE582458345F0700122E430E70F22EC20E71489828A8388
:1B1877008BF02230D10AE4F582F583F5F074802274FFF582F583F5F0747F2284
:11189200FFA8811818121527121509E96401F5822288
:0418A3007582002228
:2018A700A2E79200C2E7F8A2F7332499400B90000075F080743F0219E4752900E58224E859
:2018C700E583348DE5F034CEE834C0E8505885822585832685F027F528783BC00078AAC02D
:2018E7000078B8C000783FC0001211381581158115811581121B09E582F529248050061200
:2019070015D60219E4780079807A317BBF1219E585822585832685F027F528788379807AEF
:201927005E7B391219E5A2F733D2F7A982AA83ABF07C00B47902800F40072487121A1D8001
:2019470006F4247A1217F4E4F525F526F527752820901B5EF8E493F5F0A3E493FDA3E4934B
:20196700FEA3E493FFA3C3E995F0EA9DEB9EEC9F4030C3E995F0F9EA9DFAEB9EFBEC9FFCB4
:201987008525F0AD26AE27AF28E81217B3E52525F0F525E5263DF526E5273EF527E5283F15
:2019A700F52808B81BAFAC28AB27AA26A92575827912125E747F2529F58212159F30001B7A
:2019C700C082C083C0F0C0E090000075F080743F121A461581158115811581C2E722C000AE
:2019E700C001C002C003852982121B111211381581158115811581C082C083C0F0C0E0851F
:201A070025828526838527F0E5281214B01581158115811581226014C000F8C3E933F9EA03
:0D1A270033FAEB33FBEC33FCD8F1D0002296
:121A3400AA82AB83A2F73392D1F5826002D2F7ACF022B7
:201A46001211DB30D502B2D1BF0009BC00030215E30215D6BC00030215C0E583B4FF0BE5E9
:201A660082B4FF030215E30215C0E582B4FF030215D6C395835007247F400B0215C02480B2
:201A86001450030215D6F582C3ED9AEE9BEF9C40111582C3EA33F9EB33FAEC33FBE433FC11
:201AA6008005E4CCCBCAF9C08275F019C3E99DEA9EEB9FEC9400D5F002802D400EE99DF981
:201AC600EA9EFAEB9FFBEC9400FCC3B3E833F8E58233F582E58333F583C3E933F9EA33FAE1
:201AE600EB33FBEC33FC80C4B3E4F938FAE43582FBE43583FCD082500405827C8012125ECD
:031B06000215B70E
:081B09007F86121B1EF58222EB
:0B1B1100E4AC82FBFAF974860216A80F
:201B1C007F9E121A3430D1030215C0C3EF9582500974FFF5F0F583F5822279001217F489A7
:071B3C00828A838BF0EC228A
:00000001FF
