:0600E2007508007509001D
:2000F100AF8290F007E054FCF090F007E054FBF090F007E054F7F090F006E054E04413F0EE
:2001110090F006E0549FF090F006E0547FF0BF104C7D207EF08E0590F000EDF07E2090F028
:2001310001EEF07DD97EDF8E0590F002EDF07ED990F003EEF090F004E0541F4420F090F0C7
:2001510004E054E0F090F0057412F090F007E0543F4440F090F007E054CFF0804DBF204AAD
:200171007ED97FDF8F0690F000EEF07FD990F001EFF07E207FF08F0690F002EEF07F2090DD
:20019100F003EFF090F004E0541F4480F090F004E054E0F090F0057414F090F007E0543F72
:2001B100F090F007E054CF4410F07E007FF08FD575D40022E582FF600C43C640E5BE30E5E1
:2001D100FB43BE042253BEFBE5BE30E6FB0053C68043BE0422AC82AD83AEF0FF745CB50EDE
:2001F10012749DB50F0D7406B51008E4B5110474018001E4FB600302028374A0B50E1074EB
:200211003EB50F0B740DB51006E4B5110280497458B50E1074C7B50F0B740DB51006E4B571
:200231001102801A90DF2E74C0F090DF097423F090DF0A7431F090DF0B743BF0804C90DFDE
:200251002E74C0F090DF097422F090DF0A74BBF090DF0B7413F0803290DF2E74C2F090DFD0
:20027100097421F090DF0A7462F090DF0B7476F0801890DF2E74C0F090DF097410F090DF98
:200291000A74ACF090DF0B744EF0BCB00CBD0409BE0006BF00030203FBBC000CBD9609BE5D
:2002B1000006BF0003020369BC900BBDD008BE0305BF000280030203FBEB60067E0C7F00A7
:2002D10080047E127F0090DF07EEF07412F090DF08E4F090DF0C742DF090DF0D743BF090AE
:2002F100DF0E7413F090DF0F7422F090DF1074F8F090DF117462F090DF1A74B6F090DF1B37
:200311007410F090DF147418F090DF15741DF090DF1614F090DF1774C7F090DF18E4F0902F
:20033100DF1974B0F090DF1C74EAF0EB60067E0A7F0080047E2A7F0090DF1DEEF090DF1FCC
:20035100741FF090DF237488F090DF247431F090DF257409F002048A90DF077406F090DF83
:2003710008E4F090DF0C74CAF090DF0D7483F090DF0E7413F090DF0F7422F090DF1074F8A1
:20039100F090DF117434F090DF1A7456F090DF1B7410F090DF147418F090DF157416F09076
:2003B100DF16746CF090DF177443F090DF187440F090DF197491F090DF1C74E9F0EB600669
:2003D1007E0A7F0080047E2A7F0090DF1DEEF090DF1F741FF090DF237481F090DF2474352C
:2003F100F090DF257409F002048A90DF077406F090DF08E4F090DF0C74F5F090DF0D7483F9
:20041100F090DF0E7413F090DF0F7422F090DF1074F8F090DF117415F090DF1A7456F0903C
:20043100DF1B7410F090DF147418F090DF157416F090DF16746CF090DF177403F090DF1877
:200451007440F090DF197491F090DF1C74E9F0EB60067E0A7F0080047E2A7F0090DF1DEE15
:20047100F090DF1F741FF090DF237481F090DF247435F090DF257409F090DF06E4F090DF0E
:20049100137430F090DF2F740BF090DF317406F090DF037404F090DF047445F090DF05E43F
:0804B100F090DF027411F0224B
:2004B900AE82AF837C007D00C3EC9EED64808FF063F08095F0501D7A007B00C3EA94F4EB51
:2004D9006480948150070ABA00F10B80EE0CBC00D70D80D422750E03750F00120901AE820D
:2004F900AF837C007D00C3EC9EED64808FF063F08095F050070CBC00ED0D80EA22E582FFB8
:200519007001227E008F04EE5401A2E0CC13CC13CCFD7B007A008F0E8E0F90003BC005C053
:2005390004C003C00212089FAE82AF83D002D003D004D0058E00EFF93395E0FEFFE82CF889
:20055900E93DF9EE3BFEEF3AFFE5C65403FD8DF005F0AC00AD01800DC3EF13FFEE13FEED0C
:2005790013FDEC13FCD5F0F08C008D018E028F031CBCFF091DBDFF051EBEFF011FE8494A32
:040599004B70E5229C
:04000000020089323F
:01000B0032C2
:0100130032BA
:01001B0032B2
:0100230032AA
:01002B0032A2
:01003300329A
:01003B003292
:01004300328A
:01004B003282
:01005300327A
:01005B003272
:01006300326A
:01006B003262
:01007300325A
:01007B003252
:0300830002059DD6
:0900E800750B00750C0002008686
:0300860002082A43
:20059D00C0E0C0D053E9EF539BFC7420B50D05750C018006750B0175E104D0D0D0E03285B4
:2005BD00821485831585F0167401250FFAE43510FB8A008B0189008514828515838516F0B7
:2005DD00E812088474012514F8E43515F9AF16888289838FF0EA12088474022514FDE43504
:2005FD0015FEAF167BC17CDF8C038D828E838FF0EB12088474032514FDE43515FEAF167C9E
:20061D00C18D828E838FF0EC12088474042514FDE43515FEAF16AB12AC131BBBFF011C8C3A
:20063D000353031F8D828E838FF0EB541FC0F0C0E01208E5D0F054E045F0D0F012088474DE
:20065D00052514FDE43515FEAF16AC121C8D828E838FF0EC12088474042514FDE43515FE74
:20067D00AF168D828E838FF01208E5541F12088474062514FDE43515FEAF168D828E838F99
:20069D00F01208E5547F12088474062514FDE43515FEAF168D828E838FF01208E5549F1299
:2006BD00088474062514FDE43515FEAF168D828E838FF01208E554E0440F1208847407258D
:2006DD0014FDE43515FEAF168D828E838FF01208E5543F444012088474072514FDE43515C9
:2006FD00FEAF168D828E838FF01208E554CF12088474072514FDE43515FEAF168D828E83F9
:20071D008FF01208E5440812088474072514FDE43515FEAF168D828E838FF01208E554FBC5
:20073D0012088474072514FDE43515FEAF168D828E838FF01208E554FC12088474FF250E2A
:20075D00400BAD14AE158ED58514D48009AD14AE158ED38514D2AF0E8FF005F074018002DC
:20077D0025E0D5F0FB541FF5D6000000000000000000000000000000000000000000000059
:20079D0000000000000000000000000000000000000000000000D2AFD2B8C2C0AD0FAE1035
:2007BD00AF118D828E838FF01208E5F5C12274FE55F14402F5F143F33C53BEFBE5BE30E6CB
:2007DD00FB53C6B8E5C620E6FB43BE0475C22274E055C5440BF5C543868053C4FE43C40248
:2007FD0053C4FB53C4F753C4EF53C4DF53C4BF53C5DF750F237510F0751100750E01751246
:20081D000F75130090F01875F0000205BC53F4F743FE08D293750D207582001201C5750E84
:20083D0038750FF675100D75110090D09075F003E41201E67582201200F1439A017591108E
:20085D00D2AF750C0075D60175E102E50C60FC750C001207CB90F023E0FFBF6102B29375C5
:07087D00D60175E10280E4E1
:0600B800E478FFF6D8FD1C
:200096007900E94400601B7A0090093D78347593F0E493F2A308B800020593D9F4DAF275C1
:0200B60093FFB6
:1B08840020F71130F6138883A88220F509F6A8837583002280FEF280F5F02273
:1D089F00E582850EF0A4C582C0F0850FF0A4D0F025F0C583850EF0A42583F5832209
:2000BE007800E84400600A79007593F0E4F309D8FC7834E84400600C790190F000E4F0A33A
:0400DE00D8FCD9FA77
:2008BC007A10E4FBFCE58225E0F582E58333F583EB33FBEC33FCEB950EF5F0EC950F400644
:0908DC00FCABF0438201DADD22DD
:0D008900758116120939E5826003020086B8
:1C08E50020F71430F6148883A88220F507E6A88375830022E280F7E49322E02222
:20090100C2D5E58330E70DD2D5E4C39582F582E49583F583E50F30E70DB2D5E4C3950EF585
:180921000EE4950FF50F1208BC30D50BE4C39582F582E49583F5832273
:0409390075820022A1
:00000001FF
