:03000000020006F5
:09005F0075080075090002000398
:03000300020CE00C
:2000680085822A85832B90F02CE0FCA3E0FD1CBCFF011D7A007B00C3EA9CEB64808DF0632A
:20008800F08095F0503CEA252AF8EB352BF988828983E0FF8F2CEC252AF52DED352BF52EE5
:2000A800852D82852E83E0FF88828983F0852D82852E83E52CF00ABA00010B1CBCFF011DB9
:2000C80080B522AF83E58290F032F0EFA3F090F02EE0FEA3E0FF7C007D0090F032E0FAA3CE
:2000E800E0FB4A605AEC2EF50BED3FF50C0CBC00010D752A0A752B008A828B83C007C0060C
:20010800C005C004C003C00212150FA882D002D003743028850B82850C83F0752A0A752B99
:20012800008A828B83121585E5828583F0D004D005D006D00790F032F0E5F0A3F0809B8E89
:20014800028F0390F030E0F8A3E0F9C3EC98ED648089F063F08095F05012EC2AF582ED3BFF
:20016800F5830CBC00010D7430F080DF90F02CECF0EDA3F08E828F83C005C004120068D039
:2001880004D00590F02EE0FEA3E0FFEC2EF582ED3FF583E4F08C828D8322AF82AE83ADF028
:2001A800FC90F036EFF0EEA3F0EDA3F0ECA3F090F034E0FEA3E0FFC374049E74808FF06363
:2001C800F08095F0500990F0347404F0E4A3F090F03AE4F0A3F090F036E0FCA3E0FDA3E080
:2001E800FEA3E0FFC007C006C005C004E4C0E0C0E0C0E0C0E08C828D838EF0EF1211F3ABB1
:2002080082E58124FCF581D004D005D006D007EB601990F036ECF0EDA3F0EEA3F0EFB2E783
:20022800A3F090F03A7401F0E4A3F090F036E0FCA3E0FDA3E0FEA3E0FF8C828D838EF0C01C
:2002480007C006C005C00412142585820F858310121459A882A983AAF0FBD004D005D006DE
:20026800D007C000C001C002C0038C828D838EF0EF12100085821185831285F013F514E544
:200288008124FCF58190F02EE50DF0E50EA3F090F030E4F0A3F0850F828510831200CBAA5D
:2002A80082AB8390F034E0F8A3E0F948700122EA250DFAEB350EFB8A828B83742EF08882AE
:2002C8008983C003C002C001C00012145985821A85831B85F01CF51D90000075F0207441D4
:2002E800121240AC82AD83AEF0FFC004C005C006C0078511828512838513F0E51412100BA1
:20030800AC82AD83AEF0FFE58124FCF5818C828D838EF0EF121425AE82AF83D000D001D035
:2003280002D00390F02E74012AF0E43BA3F090F030E8F0E9A3F08E828F831200CB90F03A34
:20034800E0F5F0A3E045F06047AD0DAE0E7F008D828E838FF01214DBAE82AF83EF20E7275D
:2003680074012EFCE43FFDEC250DFCED350EFDEE250DF582EF350EF583E0FB8C828D83F045
:200388001EBEFF011F80D5850D82850E83742DF022AE82AF83C007C006120E4E7582801242
:2003A8000E96AD827582E7C005120E96AC82D005EC4205C005120E4E758281120E96AC8244
:2003C800D005D006D007EC420575190190F05F7432F08E828F83C005120F4BAF82D005EF14
:2003E8004205C005120E72D0058D8222AE82AF83C007C006120E4E758280120E96AD827523
:2004080082E6C005120E96AC82D005EC4205758280C005120E96AC82D005D006D007EC42EB
:20042800058E828F83E0F582C005120E96AF82D005EF4205C005120E72D0058D8222AF83F0
:20044800E58290F03EF0EFA3F090F040E4F090F03EE0F52AA3E0F52B90F03CE0FD7C00C331
:20046800EC9D504DEC252AF582E4352BF583E0FB90F040E06BF07B0890F040E0FA30E725B1
:20048800C0058A01E929F9901A16E493F8740193FDE93395E0FFE96200EF620590F040E8EC
:2004A800F0D0058007EA2AFA90F040F0DBCA0C80AE90F040E0FF90F03DE0FEEFB5060280E5
:2004C800047582042275820022AF83E58290F041F0EFA3F090F041E0FEA3E0FF5306FC9008
:2004E800F041EEF0EFA3F090F041E0FEA3E0FF8E828F83121466AC82AD83AEF0FFC004C015
:2005080005C006C00790000075F0FA743A12100BAC82AD83AEF0FFE58124FCF581E4C0E0FC
:20052800C0E074C0C0E0C0E08C828D838EF0EF121383AC82AD83AEF0FFE58124FCF5818CE9
:20054800828D838EF0EF22AF83E58290F043F0EFA3F090F043E0FEA3E0FF5306FC90F04369
:20056800EEF0EFA3F090F043E0FEA3E0FF8E828F83121466AC82AD83AEF0FFC004C005C0FE
:2005880006C00790B85275F02F743B12100BAC82AD83AEF0FFE58124FCF5817466C0E0C04B
:2005A800E0743BC0E074C2C0E08C828D838EF0EF121383AC82AD83AEF0FFE58124FCF58104
:2005C8008C828D838EF0EF2285823085833185F0327401252BFAE4352CFB8A008B018900B1
:2005E8008530828531838532F0E81211D874012530F8E43531F9AF32888289838FF0EA1282
:2006080011D874022530FDE43531FEAF327BC17CDF8C038D828E838FF0EB1211D8740325B1
:2006280030FDE43531FEAF327CC18D828E838FF0EC1211D874042530FDE43531FEAF32ABFB
:200648002EAC2F1BBBFF011C8C0353031F8D828E838FF0EB541FC0F0C0E01214F3D0F05419
:20066800E045F0D0F01211D874052530FDE43531FEAF32AC2E1C8D828E838FF0EC1211D832
:2006880074042530FDE43531FEAF328D828E838FF01214F3541F1211D874062530FDE43554
:2006A80031FEAF328D828E838FF01214F3547F1211D874062530FDE43531FEAF328D828E0A
:2006C800838FF01214F3549F1211D874062530FDE43531FEAF328D828E838FF01214F35408
:2006E800E0440F1211D874072530FDE43531FEAF328D828E838FF01214F3543F44401211DC
:20070800D874072530FDE43531FEAF328D828E838FF01214F354CF1211D874072530FDE47C
:200728003531FEAF328D828E838FF01214F344081211D874072530FDE43531FEAF328D8268
:200748008E838FF01214F354FB1211D874072530FDE43531FEAF328D828E838FF01214F3F0
:2007680054FC1211D874FF252A400BAD30AE318ED58530D48009AD30AE318ED38530D2AF95
:200788002A8FF005F07401800225E0D5F0FB541FF5D60000000000000000000000000000B9
:2007A80000000000000000000000000000000000000000000000000000000000000000D25F
:2007C800AFD2B8C2C0AD2BAE2CAF2D8D828E838FF01214F3F5C12274FE55F14402F5F14311
:2007E800F33C53BEFBE5BE30E6FB53C6B8E5C620E6FB43BE0475C22274E055C5440BF5C5B0
:2008080043868053C4FE43C40253C4FB53C4F753C4EF53C4DF53C4BF53C5DF7F00EF2418D6
:20082800FDE434F0FE8D828E83E060060FBF140040EB8F061EEE3395E0FDEE2418F582ED66
:2008480034F0F583740AF0752B18752CF0752D008F2E752F00752A0190F01075F00012058E
:20086800D090000022AF82C007120E4E758280120E96AE82D00790F048EEF0BF0002800568
:20088800BF012880147582E5C006120E96AF82D00690F048EF4EF080127582E3C006120E2E
:2008A80096AF82D00690F048EF4EF0120E4E758281120E96AF8290F048E04FF0120E2E7E1E
:2008C800007F007582E8C007C006120D06120E41AD82D006D007BD010280120EBE00010F95
:2008E8008E048F05C3EC94E8ED940340D6120E41E582700890F048E043E002F075190090EA
:20090800F05F7432F090F046120F4B75190090F05F7432F090F047120F4BAE15AF1690F07A
:2009280047E0FD90F046E0FBE4FCFAED4204EA42038E828F83ECF0EBA3F075190090F05FC5
:200948007432F090F045120F4B90F045E0FF90F03C7402F090F03DEFF090F046120446AF95
:200968008290F048E04FF0120E7290F048E0F58222AF82C007120E4E758280120E96AE8270
:20098800D00790F04CEEF0BF00028005BF012880147582F5C006120E96AF82D00690F04CD1
:2009A800EF4EF080127582F3C006120E96AF82D00690F04CEF4EF07E007F00C007C006126E
:2009C8000E4E758210120D06D006D0078E048F050EBE00010FC3EC9414ED940050157582A4
:2009E80081C007C006120E96AD82D006D007BD010280C8C3EE9414EF9400400890F04CE077
:200A080043E002F075190090F05F7432F090F04A120F4B75190090F05F7432F090F04B12A0
:200A28000F4B75190190F05F7432F090F049120F4BAE17AF1890F04BE0FD90F04AE0FBE45E
:200A4800FCFAED4204EA42038E828F83ECF0EBA3F090F049E0FF90F03C7402F090F03DEF44
:200A6800F090F04A120446AF8290F04CE04FF0120E7290F04CE0F5822290F04EE4F090F043
:200A88004FF0A3F090F051F0A3F090F053F0A3F0A3F0A3F090F057F0A3F0A3F0A3F0120E0C
:200AA8004875820F120D06120E4E758280120E96AF827582FEC007120E96AE82D007EE4246
:200AC80007C007120E4E758280120E96AE82D007EE42077582E7C007120E96AE82D007EE17
:200AE8004207C007120E4E758281120E96AE82D007EE420775190190F05F7432F090F04E32
:200B0800C007120F4BAE82D00790F04DEE4FF090F04EE0FFBF0202800690F04D7401F075FC
:200B2800820F120D0690F05B120399AF8290F04DE04FF090F05B1203F4AF8290F04DE04F40
:200B4800F0E0FFE0701775154F7516F0F582C00712086DAE82D00790F04DEE4FF090F04D70
:200B6800E0FFE070187517517518F0758201C007120979AE82D00790F04DEE4FF0120E4E0A
:200B8800758280120E96AF8290F04DE04FF07582FE120E96AF8290F04DE04FF0C287C286AA
:200BA80090F04DE0FFE0702890F051E0FDA3E0FE8D828E83C00712054FAB82AC83ADF0FE96
:200BC800D00790F057EBF0ECA3F0EDA3F0EEA3F0EF702490F04FE0FEA3E0FF8E828F83121E
:200BE80004D1AC82AD83AEF0FF90F053ECF0EDA3F0EEA3F0EFA3F090F04DE06033752A18F4
:200C0800752B1A752C80752D05752E0090F01875F0001210DCE4F52AF52BF52C752D0FF5C2
:200C28002E90F01D75F0001210DC1207DF020CDCE4F52AF52BF52C752D14F52E90F0187572
:200C4800F0001210DC90F02BE4F0752A1E752B1A752C80752D02F52E90F01875F0001210A1
:200C6800DC90F053E0FCA3E0FDA3E0FEA3E0FF74022418F50DE434F0F50E90F0347402F085
:200C8800E4A3F08C828D838EF0EF1201A2752A21752B1A752C80752D03752E0090F01E759F
:200CA800F0001210DC90F057E0FCA3E0FDA3E0FEA3E0FF74092418F50DE434F0F50E90F0C2
:200CC800347402F0E4A3F08C828D838EF0EF1201A21207DF75820022752A25752B1A752C8B
:1E0CE80080752D0B752E0090F01875F0001211641207DF120A819007D0120D4480F5C6
:1B1A160031014552524F5200483D0020543D005374617274696E672E2E2E00ED
:200D0600E58290F05CF0E0FF7D007E008F2A752B00900014C007C006C005121223AB82AC51
:200D260083D005D006D007C3ED9BEE64808CF063F08095F050070DBD00D20E80CF22AE8215
:200D4600AF837C007D00C3EC9EED64808FF063F08095F0501D7A007B00C3EA94F4EB648007
:200D6600948150070ABA00F10B80EE0CBC00D70D80D422752A03752B00121585AE82AF8361
:200D86007C007D00C3EC9EED64808FF063F08095F050070CBC00ED0D80EA22E582FF7001E3
:200DA600227E008F04EE5401A2E0CC13CC13CCFD7B007A008F2A8E2B90003BC005C004C033
:200DC60003C002121223AE82AF83D002D003D004D0058E00EFF93395E0FEFFE82CF8E93D04
:200DE600F9EE3BFEEF3AFFE5C65403FD8DF005F0AC00AD01800DC3EF13FFEE13FEED13FD8D
:200E0600EC13FCD5F0F08C008D018E028F031CBCFF091DBDFF051EBEFF011FE8494A4B70F1
:020E2600E522C3
:200E2800D28643FD4022D28743FD8022C28622C28722A286E433F58222A287E433F58222EF
:200E4800120E28020E2E120E28758201120D06120E2E758201120D06120E3475820A120DC0
:200E680006120E3775820A020D06120E37758201120D06120E34758201120D06120E2E754F
:200E8800820A120D06120E2875820A020D06E58290F05DF07F007E80E0FDED5E7011C0071A
:200EA800C006C005120E34D005D006D007800FC007C006C005120E28D005D006D007758227
:200EC80001C007C006C005120D06120E2E758205120D06120E37758201120D06D005D00604
:200EE800D007EEC313FE70B2C007120E28120E2E758214120D06120E3AE582D00760027F29
:200F080001C007120E37758214120D06D0078F8222E58290F05EF0E0FFC007120E41E582CD
:200F2800D007701B8F061F90F05EEFF0EE7004758202227582E8C007120D06D00780DA75E8
:200F4800820022AE82AF83E4F0C007C006120E28D006D0077D8090F05FE0FCC007C006C028
:200F680005C004120E2E758201120D06D0048C82C004120F19AB82758203C003120D061234
:200F88000E3AE582D003D004D005D006D007600F8E828F83E0FAED42028E828F83EAF0C019
:200FA80007C006C005C004C003120E37758201120D06D003D004D005D006D007EDC313FDB3
:200FC8007099E5197009C003120E34D0038007C003120E28D003758201C003120D06120E3A
:180FE8002E758205120D06120E37120E28758214120D06D0038B8222D1
:0B100000A8811818C6B2E7C6021383CF
:20100B001210AEBC0003021493EF60FA30D502B2D1E583B4FF030214A9E582B4FF030214AA
:20102B00A9258340072482400B02149324831450030214A9F582EA8DF0A4A8F0EA8EF0A480
:20104B0028F8E435F0F9EB8DF0A428E935F0F9E433CA8FF0A429F9EA35F0FAEBF88EF0A4F4
:20106B0029F9EA35F0FAE433FBEC8DF0A429F9EA35F0FAE43BFBE88FF0A42AFAEB35F0FB9C
:20108B00E433CCFD8EF0A42AFAEB35F0FBE43CFCED8FF0A42BFBEC35F0FC20E70312113157
:0310AB00021472BA
:2010AE00AA82AB83A2F73392D1F5826002D2F7ACF0E58124F9F8E6FD08E6FE0886F008E6A5
:0E10CE00A2F73392D5F5836002D2F7AFF0227D
:06003500E478FFF6D8FD9F
:2010DC00AD82AE83AFF08D2F8E308F31852A32852B33852C34A82DA92E8803890418B8FF7F
:2010FC000119EB4C60258532828533838534F01214F3FCA38582328583338D828E838FF016
:15111C00EC1211D8A3AD82AE8380CE852F828530838531F02250
:201131007804EC7011E58224F8500AF582E4C9CACBFCD8EF22EC7820058220E713D58201BD
:1311510022C3E933F9EA33FAEB33FBEC33FCD8EA158222CB
:200013007900E94400601B7A00901AA978607593F0E493F2A308B800020593D9F4DAF2759B
:0200330093FF39
:20116400AD82AE83AFF08D2F8E308F31A82DA92E852A32852B33852C34E849602F853282E4
:201184008533838534F01214F3F535601F18B8FF01190532E4B5320205338D828E838FF0E1
:2011A400E5351211D8A3AD82AE8380CD8803890418B8FF0119EB4C60118D828E838FF0E49A
:1411C4001211D8A3AD82AE8380E2852F828530838531F02281
:1B11D80020F71130F6138883A88220F509F6A8837583002280FEF280F5F02216
:2011F300FFA88118181213FAD2D133E6400730E70B7582002220E70675820122C2D1121348
:10121300DCE97003F5822220D101B3E433F58222A5
:1D122300E582852AF0A4C582C0F0852BF0A4D0F025F0C583852AF0A42583F5832227
:20124000AC82AD83AEF0FF851AF0E51B42F0E51C42F0E51D547F45F0700990000075F080A7
:20126000743F22C007C006C005C004E4C0E0C0E07480C0E0743FC0E0851A82851B83851C93
:20128000F0E51D121765AB82E58124FCF581D004D005D006D007EB60088C828D838EF0EF71
:2012A00022C007C006C005C004C004C005C006C007900000E4F5F01211F3E58124FCF58175
:2012C000D004D005D006D007E5827007900000E4F5F0228C828D838EF0EF1215BDAC82AD15
:2012E00083AEF0FFC01AC01BC01CC01D8C828D838EF0EF12100BAC82AD83AEF0FFE5812423
:0D130000FCF5818C828D838EF0EF02177A50
:20130D00E52A452B60467A01E52A25E0F52AE52B334012F52BE582952AE583952B40030A9D
:20132D0080E6C3E52B13F52BE52A13F52AC3E582952AF5F0E583952B4005F58385F082C386
:0D134D00E52B13F52BE52A13F52ADAE12232
:20003B007800E84400600A79007593F0E4F309D8FC7860E84400600C790190F000E4F0A391
:04005B00D8FCD9FAFA
:20135A007A10E4FBFCE58225E0F582E58333F583EB33FBEC33FCEB952AF5F0EC952B400663
:09137A00FCABF0438201DADD2234
:201383001210AE7900E583B58202800D50031214C1E583C395821216C7E5D0C465D020E1B9
:2013A30017EA2DFAEB3EFBEC3FFC500974011216C7EC4480FC021472C3EA9DFAEB9EFBEC12
:1913C3009FFC500FC3E499F9E49AFAE49BFBE49CFCB2D112113102147211
:2013DC007901AA82E68F82B5821318E6B5F00E18E6B5830918E68A82B58202790022B48008
:2013FC000FE5F0700AE5837006E58270027F00EFB6801518B6001018B6000B18B600060870
:09141C00080876002208080822E5
:2014250012170A700AE582458345F0700122E430D112F4700BE5F0F47006E58330E70122BC
:1414450090800022700AE5F07006E58320E70122907FFF22DA
:0D145900AC83AB827A007900748E02154ED0
:0C146600E4AC83AB82FAF9748E02157BB3
:20147200B98003EA13B34010EA2401FAE43BFBE43CFC50047C800582BC000EBB000BBA00BE
:2014920008E4F5F0F583F58222A2D1E582138CF092F78B838A8222E4F583F58275F080F47E
:0F14B200A2D11322E4F583F58275F0C0747F2276
:1A14C100E582C583F582A2D133A2D592D11392D5ECCFFCEBCEFBEACDFA22B3
:1814DB00AA82AB831214F36003A380F8C3E5829AF582E5839BF5832230
:0D000600758135121776E582600302000354
:1C14F30020F71430F6148883A88220F507E6A88375830022E280F7E49322E02208
:20150F00C2D5E58330E70DD2D5E4C39582F582E49583F583E52B30E70BE4C3952AF52AE4AE
:16152F00952BF52B12130D30D50BE4C39582F582E49583F58322B9
:20154500FCABF0AA83A982749EF582C2D1EC30E716D2D1E9F42401F9EAF43400FAEBF434A5
:0D15650000FBECF43400FC12113102147292
:13157200FCABF0AA83A982749EC2D1F5821211310214727F
:20158500C2D5E58330E70DD2D5E4C39582F582E49583F583E52B30E70DB2D5E4C3952AF5BD
:1815A5002AE4952BF52B12135A30D50BE4C39582F582E49583F58322E6
:2015BD0012190730D1061214B6021685BC0008D2D11214A9021685C082740379001216C768
:2015DD00E4F521F522F523F524901A31F88C078B068A0589F0E8121686E925F0EA3DEB3EC9
:2015FD00EC3F54E07028E925F0F9EA3DFAEB3EFBEC3FFCE4932521F5217401933522F5222B
:20161D007402933523F5237403933524F524A3A3A3A308B81EB7AC24AB23AA22A92175826C
:20163D0081D2D1121131D0E0B47E0512148A803840062482C2D58005F4247FD2D5F8121462
:20165D00C1741888F0A4F9AAF074B188F0A4FBACF0747288F0A42AFAE5F03BFBE43CFC75D7
:09167D008286121131121386223B
:2016860024F850228DF0AD06AE077F0024F850168DF0AD067E0024F8500C8DF07D0024F894
:2016A600500475F0002224086016C000F8C3EF13FFEE13FEED13FDE5F013F5F0D8EFD000CB
:0116C6002201
:201A3100FF422E16F691F90CF2FD2307EEE0C4030CA3F001D814FC00A3027F0055C03F00D6
:201A51000BF01F0001FC0F0000FF0700C0FF0300F0FF0100FCFF0000FF7F000000400000DE
:201A7100002000000010000000080000000400000002000000010000800000004000000056
:181A9100200000001000000008000000040000000200000001000000FE
:2016C7006040F82582500274FFF582E824F8501ECCCBCAF9E4CC24F85014CBCAF9E4CB242B
:2016E700F8500BCAF9E4CA24F8500379002224086010F8C3EC13FCEB13FBEA13FAE913F9DE
:03170700D8F122F4
:20170A00121907C3749E9582403979001216C730D126E9F42401F582EAF43400F583EBF4B7
:20172A003400F5F0ECF43400700AE582458345F0700122E430E70F22EC20E71489828A83B6
:1B174A008BF02230D10AE4F582F583F5F074802274FFF582F583F5F0747F22B2
:11176500FFA88118181213FA1213DCE96401F5822214
:041776007582002256
:20177A00A2E79200C2E7F8A2F7332499400B90000075F080743F0218B7752900E58224E8B5
:20179A00E583348DE5F034CEE834C0E8505885822585832685F027F528783BC00078AAC05B
:2017BA000078B8C000783FC00012100B15811581158115811219DCE582F52924805006128B
:2017DA0014A90218B7780079807A317BBF1218B885822585832685F027F528788379807AA8
:2017FA005E7B391218B8A2F733D2F7A982AA83ABF07C00B47902800F400724871218F0808D
:20181A0006F4247A1216C7E4F525F526F527752820901A31F8E493F5F0A3E493FDA3E493D5
:20183A00FEA3E493FFA3C3E995F0EA9DEB9EEC9F4030C3E995F0F9EA9DFAEB9EFBEC9FFCE2
:20185A008525F0AD26AE27AF28E8121686E52525F0F525E5263DF526E5273EF527E5283F71
:20187A00F52808B81BAFAC28AB27AA26A925758279121131747F2529F58212147230001B04
:20189A00C082C083C0F0C0E090000075F080743F1219191581158115811581C2E722C0000A
:2018BA00C001C002C0038529821219E412100B1581158115811581C082C083C0F0C0E085AA
:2018DA0025828526838527F0E5281213831581158115811581226014C000F8C3E933F9EA60
:0D18FA0033FAEB33FBEC33FCD8F1D00022C5
:12190700AA82AB83A2F73392D1F5826002D2F7ACF022E5
:201919001210AE30D502B2D1BF0009BC00030214B60214A9BC0003021493E583B4FF0BE5CF
:2019390082B4FF030214B6021493E582B4FF030214A9C395835007247F400B021493248098
:201959001450030214A9F582C3ED9AEE9BEF9C40111582C3EA33F9EB33FAEC33FBE433FC6D
:201979008005E4CCCBCAF9C08275F019C3E99DEA9EEB9FEC9400D5F002802D400EE99DF9AF
:20199900EA9EFAEB9FFBEC9400FCC3B3E833F8E58233F582E58333F583C3E933F9EA33FA0F
:2019B900EB33FBEC33FC80C4B3E4F938FAE43582FBE43583FCD082500405827C8012113129
:0319D90002148A6B
:0819DC007F861219F1F5822249
:0B19E400E4AC82FBFAF9748602157B6C
:2019EF007F9E12190730D103021493C3EF9582500974FFF5F0F583F5822279001216C78960
:071A0F00828A838BF0EC22B8
:00000001FF
