:04000000020089323F
:01000B0032C2
:0100130032BA
:01001B0032B2
:0100230032AA
:01002B0032A2
:01003300329A
:01003B003292
:01004300328A
:01004B003282
:01005300327A
:01005B003272
:01006300326A
:01006B003262
:01007300325A
:01007B003252
:03008300020879F7
:2000E200750800750900750A00750B00750D00750E00E4F564F565F566F567756801F56975
:17010200F56AF56BF56CF56DF56EF56FF570F571F572F5730200867B
:030086000208CDA0
:20011900AF8290F007E054FCF090F007E054FBF090F007E054F7F090F006E054E04413F0C5
:2001390090F006E0549FF090F006E0547FF0BF104C7D507E008E0590F000EDF07E5090F090
:2001590001EEF07DD97EDF8E0590F002EDF07ED990F003EEF090F004E0541F4420F090F09F
:2001790004E054E0F090F0057412F090F007E0543F4440F090F007E054CFF0804DBF204A85
:200199007ED97FDF8F0690F000EEF07FD990F001EFF07E507F008F0690F002EEF07F509045
:2001B900F003EFF090F004E0541F4480F090F004E054E0F090F0057414F090F007E0543F4A
:2001D900F090F007E054CF4410F07E007FF08FD575D40022E582FF600C43C640E5BE30E5B9
:2001F900FB43BE042253BEFBE5BE30E6FB0053C68043BE0422AC82AD83AEF0FF745CB5764E
:2002190012749DB5770D7406B57808E4B5790474018001E4FB60030202AB74A0B5761074FA
:200239003EB5770B740DB57806E4B5790280497458B5761074C7B5770B740DB57806E4B5D9
:200259007902801A90DF2E74C0F090DF097423F090DF0A7431F090DF0B743BF0804C90DF4E
:200279002E74C0F090DF097422F090DF0A74BBF090DF0B7413F0803290DF2E74C2F090DFA8
:20029900097421F090DF0A7462F090DF0B7476F0801890DF2E74C0F090DF097410F090DF70
:2002B9000A74ACF090DF0B744EF0BCB00CBD0409BE0006BF00030204EDBC000CBD9609BE42
:2002D9000006BF00030203F6BC900BBDD008BE0305BF000280030204EDEB60067E0C7F00FF
:2002F90080047E127F0090DF07EEF07412F090DF08E4F090DF0C742DF090DF0D743BF09086
:20031900DF0E7413F090DF0F7422F090DF1074F8F090DF117462F090DF1A74B6F090DF1B0E
:200339007410F090DF147418F090DF15741DF090DF1614F090DF1774C7F090DF18E4F09007
:20035900DF1974B0F090DF1C74EAF0EB60067E0A7F0080047E2A7F0090DF1DEEF090DF1FA4
:20037900741FF090DF237488F090DF247431F090DF257409F0EB705C74A0B57610743EB5CD
:20039900770B740DB57806E4B57902803E7458B5761074C7B5770B740DB57806E4B57902FB
:2003B90080207438B5761074F6B5770B740DB57806E4B579028002801B75744D75750002F5
:2003D90005DE75744D7575000205DE75744D7575000205DE7574497575000205DE90DF07A0
:2003F9007406F090DF08E4F090DF0C74CAF090DF0D7483F090DF0E7413F090DF0F7422F02B
:2004190090DF1074F8F090DF117434F090DF1A7456F090DF1B7410F090DF147418F090DF21
:20043900157416F090DF16746CF090DF177443F090DF187440F090DF197491F090DF1C74EB
:20045900E9F0EB60067E0A7F0080047E2A7F0090DF1DEEF090DF1F741FF090DF237481F0B5
:2004790090DF247435F090DF257409F0EB705C74A0B57610743EB5770B740DB57806E4B5FA
:200499007902803E7458B5761074C7B5770B740DB57806E4B5790280207438B5761074F6D8
:2004B900B5770B740DB57806E4B579028002801B7574497575000205DE75744975750002E8
:2004D90005DE7574497575000205DE75744A7575000205DE90DF077406F090DF08E4F09062
:2004F900DF0C74F5F090DF0D7483F090DF0E7413F090DF0F7422F090DF1074F8F090DF11E9
:200519007415F090DF1A7456F090DF1B7410F090DF147418F090DF157416F090DF16746CA6
:20053900F090DF177403F090DF187440F090DF197491F090DF1C74E9F0EB60067E0A7F00ED
:2005590080047E2A7F0090DF1DEEF090DF1F741FF090DF237481F090DF247435F090DF2525
:200579007409F0EB705974A0B57610743EB5770B740DB57806E4B57902803C7458B576107E
:2005990074C7B5770B740DB57806E4B57902801F7438B5761074F6B5770B740DB57806E449
:2005B900B57902800280187574497575008016757449757500800E75744975750080067565
:2005D900744B75750090DF06E4F090DF137430F090DF2F740BF090DF317406F090DF0374FD
:2005F90004F090DF047445F090DF05E4F090DF027411F022AC82AD83AEF0FB8B538E038B91
:20061900548D038B558C5622E582FF7001227E008F04EE5401A2E0CC13CC13CCFD7B007AAE
:20063900008F768E7790003BC005C004C003C0021209FBAE82AF83D002D003D004D0058E6A
:2006590000EFF93395E0FEFFE82CF8E93DF9EE3BFEEF3AFFE5C65403FD8DF005F0AC00ADB0
:2006790001800DC3EF13FFEE13FEED13FDEC13FCD5F0F08C008D018E028F031CBCFF091D2A
:20069900BDFF051EBEFF011FE8494A4B70E522745AB5510F74A5B5520A7551007552007539
:2006B90082012275820022E56330E7077563007582012275820022AC537F008C7D8F7A8FD3
:2006D9007B8F7CAA547B008B078A06E4FB427AEB427BEE427CEF427DAC557D007E008E07B2
:2006F9008D068C05E4457AF576ED457BF577EE457CF578EF457DF579AA56E4FBFEFFE57624
:200719004202E5774203E5784206E57942078A828B838EF0EF22AF827E00C3EF9480EE94EF
:200739000050158F04EEC313CC13CCFDECC39574F582ED9575F58322EE24FFC313CF13CFE4
:20075900FEEFC39574F582EE9575F583227411B5500280030208751206A8E582700302088C
:20077900711206C0E58270030208371206D085826485836585F066F567E568B56437E5691A
:20079900B56532E56AB5662DE56BB567280568E4B5680C0569B56907056AB56A02056B05B7
:2007B90070E4B5700C0571B571070572B57202057375820122C3E5649568E5659569E5662A
:2007D900956AE567956B502B74012564F568E43565F569E43566F56AE43567F56BE4F56C00
:2007F900F56DF56EF56F757001F571F572F5737582012274012564F568E43565F569E43532
:2008190066F56AE43567F56B0570E4B5700C0571B571070572B5720205737582012205684E
:20083900E4B5680C0569B56907056AB56A02056B056CE4B56C0C056DB56D07056EB56E024A
:20085900056F0570E4B5700C0571B571070572B5720205737582012275820022758200227A
:20087900C0E0C0D053E9EF539BFC7420B50C05750B018006750A0175E104D0D0D0E032AEAF
:2008990082AF837C007D00C3EC9EED64808FF063F08095F0501D7A007B00C3EA94F4EB64B7
:2008B90080948150070ABA00F10B80EE0CBC00D70D80D42253F4F7C29343FE0853F4FBC203
:2008D9009243FE04750C107582001201ED7576387577F675780D75790090D09075F003E477
:2008F90012020E7410B50C02800302099A758210120119439A01759110D2AF75501175510A
:200919005A7552A57F07EF2450F876CC0FEF24EE50F47C017D007E007F00C374409C7442C1
:200939009D740F9EE49F40EA8C828D838EF0EFC007C006C005C00412060DC2929001F41282
:200959000898D004D005D006D00743D60175E10375E900D292E50A60FC750A00758203C0CF
:2009790007C006C005C004120621D004D005D006D0070CBC00090DBD00050EBE009C0F80E2
:2009990099758220120119439A01759110D2AF75D60175E102750B00E50B60FC750B0012EB
:2009B9000766E582602CE54D254D240DF9870609870719E54EC39EF54EE54F9FF54F8562DE
:2009D90082C00112072FE5828583F0D001F709A7F019900064120898B29275D60175E10205
:0209F90080B6C6
:020A1C002D2A81
:0600B800E478FFF6D8FD1C
:200096007900E94400601B7A00900A1E78087593F0E493F2A308B800020593D9F4DAF2750B
:0200B60093FFB6
:1D09FB00E5828576F0A4C582C0F08577F0A4D0F025F0C5838576F0A42583F5832274
:2000BE007800E84400600A79007593F0E4F309D8FC7808E84400600C790190F000E4F0A366
:0400DE00D8FCD9FA77
:0D00890075817D120A18E582600302008671
:040A180075820022C1
:00000001FF
