:040000000200313297
:01000B0032C2
:0100130032BA
:01001B0032B2
:0100230032AA
:03002B0002008D43
:03008A0002002E43
:03002E0002009538
:20008D00B293C2C753A1FE3253F4F6D290C29343FE09C2C753A1FE43A110D2ADD2AFE5C609
:2000AD0020E6FB53C67F74FC55A24402F5A243A204AFA5EFB5A50280FAAFA5EFB5A5028035
:1A00CD00FA75A32075A40053BEFC438701AFA5EFB5A50280FA43870180F39F
:06006000E478FFF6D8FD74
:20003E007900E94400601B7A009000EB78007593F0E493F2A308B800020593D9F4DAF275A8
:02005E0093FF0E
:200066007800E84400600A79007593F0E4F309D8FC7800E84400600C790090F000E4F0A3C7
:04008600D8FCD9FACF
:0D0031007581071200E7E582600302002ED2
:0400E70075820022FC
:00000001FF
