:03000000020006F5
:08005F00E4F508F509020003B5
:0300030002033BBA
:20006700E5AE20E7FB75AB11900457E493FE740193C313CE13CEFF8FAD8EAC43AE0100E57A
:20008700AE20E7FB7582012243AE02002285821085831185F0127401250BFAE4350CFB8A7A
:2000A700008B0189008510828511838512F0E812041C74012510F8E43511F9AF128882893A
:2000C700838FF0EA12041C74022510FDE43511FEAF127BC17CDF8C038D828E838FF0EB12A8
:2000E700041C74032510FDE43511FEAF127CC18D828E838FF0EC12041C74042510FDE4358A
:2001070011FEAF12AB0EAC0F1BBBFF011C8C0353031F8D828E838FF0EB541FC0F0C0E0123F
:200127000437D0F054E045F0D0F012041C74052510FDE43511FEAF12AC0E1C8D828E838F49
:20014700F0EC12041C74042510FDE43511FEAF128D828E838FF0120437541F12041C7406EC
:200167002510FDE43511FEAF128D828E838FF0120437547F12041C74062510FDE43511FE98
:20018700AF128D828E838FF0120437549F12041C74062510FDE43511FEAF128D828E838F42
:2001A700F012043754E0440F12041C74072510FDE43511FEAF128D828E838FF0120437546C
:2001C7003F444012041C74072510FDE43511FEAF128D828E838FF012043754CF12041C74D8
:2001E700072510FDE43511FEAF128D828E838FF0120437440812041C74072510FDE4351195
:20020700FEAF128D828E838FF012043754FB12041C74072510FDE43511FEAF128D828E83F5
:200227008FF012043754FC12041C74FF250A400BAD10AE118ED58510D48009AD10AE118EA1
:20024700D38510D2AF0A8FF005F07401800225E0D5F0FB541FF5D600000000000000000036
:20026700000000000000000000000000000000000000000000000000000000000000000077
:2002870000000000D2AFD2B8C2C0AD0BAE0CAF0D8D828E838FF0120437F5C12274FE55F120
:2002A7004402F5F143F33C53BEFBE5BE30E6FB53C6B8E5C620E6FB43BE0475C22274E05555
:2002C700C5440BF5C543868053C4FE43C40253C4FB53C4F753C4EF53C4DF53C4BF53C5DFF9
:2002E700750B18750CF0750D00750A01750E11750F0090F01075F00012009490000022AED9
:2003070082AF837C007D00C3EC9EED64808FF063F08095F0501D7A007B00C3EA94F4EB644E
:2003270080948150070ABA00F10B80EE0CBC00D70D80D4221200677E317FF08F0690F029A5
:20034700EEF07F3190F02AEFF090F02B74DFF090F02C74AFF090F02DE054E0F090F02DE094
:20036700541FF090F02E7411F090F02FE0547FF090F02FE0549FF090F02FE054E04412F023
:2003870090F030E0543F4440F090F030E054CFF090F030E054F7F090F030E054FBF090F002
:2003A70030E054FC4402F07E297FF08FD575D429E5AE20E7FB75AB11900457E493FE740119
:2003C70093C313CE13CEFF8FAD8EAC43D60112008FE5D130E0FBE5AE54C0600280F853D168
:2003E700FE900457E493FE740193FF8E088F097F00EF2418FDE434F0FEEF2508F582E4350A
:1504070009F583E4938D828E83F00FBF110040E11202A380FEA3
:130457000044466C61736820436F6E74726F6C6C6572001C
:06003500E478FFF6D8FD9F
:200013007911E94400601B7A0190045978317593F0E493F2A308B800020593D9F4DAF2751E
:0200330093FF39
:1B041C0020F71130F6138883A88220F509F6A8837583002280FEF280F5F022DF
:20003B007800E84400600A79007593F0E4F309D8FC7831E84400600C790190F000E4F0A3C0
:04005B00D8FCD9FAFA
:0D000600758112120453E5826003020003AD
:1C04370020F71430F6148883A88220F507E6A88375830022E280F7E49322E022D4
:04045300758200228C
:00000001FF
