:040000000200713257
:01000B0032C2
:0100130032BA
:01001B0032B2
:0100230032AA
:01002B0032A2
:01003300329A
:01003B003292
:01004300328A
:01004B003282
:01005300327A
:01005B003272
:01006300326A
:03006B000200DAB6
:0300CA0002006EC3
:03006E000200E5A8
:2000CD00C2C5758900438C08D2BDD2AF225389FDC2C553BEFCC2933285D50885D40953F486
:2000ED00F6D290D29343FE0953F3FD53FDFD438F021200CD53BEFBE5BE30E5FB74F855C663
:20010D004441F5C6E5C630E6FB43BE0490F0007410F07427A3F0E4A3F0A3F090F000E0FC49
:20012D00A3E0FDA3E0FEA3E0FF1CBCFF091DBDFF051EBEFF011F90F000ECF0EDA3F0EEA309
:20014D00F0EFA3F090F000E0F5F0A3E042F0A3E042F0A3E045F070C390F0007410F07427F7
:20016D00A3F0E4A3F0A3F0D28185D50885D40943D6817E047FF08F0690F00BEEF07F049022
:20018D00F00CEFF07E0B7FF08FD575D40B75D60185A50AE5A5B50A0280F943C70275BE073D
:2001AD00000000E5BE5403600875D701004387010053C7FD8508D58509D475D6010201018D
:1301D10000000000070707070707040000DFBE00072042E7
:0600A000E478FFF6D8FD34
:20007E007913E94400601B7A019001D178007593F0E493F2A308B800020593D9F4DAF2756D
:02009E0093FFCE
:2000A6007800E84400600A79007593F0E4F309D8FC7800E84400600C790090F000E4F0A387
:0400C600D8FCD9FA8F
:0D00710075810A1201CDE582600302006E68
:0401CD007582002215
:00000001FF
