:03000000020006F5
:03005F0002000399
:0300030002006296
:1200620053F4F7D29343FE089003E8120074B29380F6E4
:20007400AE82AF837C007D00C3EC9EED64808FF063F08095F0501D7A007B00C3EA94F4EB9A
:200094006480948150070ABA00F10B80EE0CBC00D70D80D42275080375090012019EAE82CD
:2000B400AF837C007D00C3EC9EED64808FF063F08095F050070CBC00ED0D80EA22E582FF01
:2000D4007001227E008F04EE5401A2E0CC13CC13CCFD7B007A008F088E0990003BC005C0A9
:2000F40004C003C002120158AE82AF83D002D003D004D0058E00EFF93395E0FEFFE82CF821
:20011400E93DF9EE3BFEEF3AFFE5C65403FD8DF005F0AC00AD01800DC3EF13FFEE13FEED55
:2001340013FDEC13FCD5F0F08C008D018E028F031CBCFF091DBDFF051EBEFF011FE8494A7B
:040154004B70E522E5
:06003500E478FFF6D8FD9F
:200013007900E94400601B7A009001DA78007593F0E493F2A308B800020593D9F4DAF275E3
:0200330093FF39
:1D015800E5828508F0A4C582C0F08509F0A4D0F025F0C5838508F0A42583F5832269
:200175007A10E4FBFCE58225E0F582E58333F583EB33FBEC33FCEB9508F5F0EC950940069E
:09019500FCABF0438201DADD222B
:20003B007800E84400600A79007593F0E4F309D8FC7800E84400600C790090F000E4F0A3F2
:04005B00D8FCD9FAFA
:0D0006007581091201D6E582600302000336
:20019E00C2D5E58330E70DD2D5E4C39582F582E49583F583E50930E70DB2D5E4C39508F5FC
:1801BE0008E49509F50912017530D50BE4C39582F582E49583F583223E
:0401D600758200220C
:00000001FF
