:0600E2007508007509001D
:2000F100AF8290F007E054FCF090F007E054FBF090F007E054F7F090F006E054E04413F0EE
:2001110090F006E0549FF090F006E0547FF0BF104C7D087EF08E0590F000EDF07E0890F058
:2001310001EEF07DD97EDF8E0590F002EDF07ED990F003EEF090F004E0541F4420F090F0C7
:2001510004E054E0F090F0057412F090F007E0543F4440F090F007E054CFF0804DBF204AAD
:200171007ED97FDF8F0690F000EEF07FD990F001EFF07E087FF08F0690F002EEF07F08900D
:20019100F003EFF090F004E0541F4480F090F004E054E0F090F0057414F090F007E0543F72
:2001B100F090F007E054CF4410F07E007FF08FD575D40022E582FF600C43C640E5BE30E5E1
:2001D100FB43BE042253BEFBE5BE30E6FB0053C68043BE0422AC82AD83AEF0FF745CB511DB
:2001F10012749DB5120D7406B51308E4B5140474018001E4FB600302028374A0B5111074DF
:200211003EB5120B740DB51306E4B5140280497458B5111074C7B5120B740DB51306E4B55F
:200231001402801A90DF2E74C0F090DF097423F090DF0A7431F090DF0B743BF0804C90DFDB
:200251002E74C0F090DF097422F090DF0A74BBF090DF0B7413F0803290DF2E74C2F090DFD0
:20027100097421F090DF0A7462F090DF0B7476F0801890DF2E74C0F090DF097410F090DF98
:200291000A74ACF090DF0B744EF0BCB00CBD0409BE0006BF00030203FBBC000CBD9609BE5D
:2002B1000006BF0003020369BC900BBDD008BE0305BF000280030203FBEB60067E0C7F00A7
:2002D10080047E127F0090DF07EEF07412F090DF08E4F090DF0C742DF090DF0D743BF090AE
:2002F100DF0E7413F090DF0F7422F090DF1074F8F090DF117462F090DF1A74B6F090DF1B37
:200311007410F090DF147418F090DF15741DF090DF1614F090DF1774C7F090DF18E4F0902F
:20033100DF1974B0F090DF1C74EAF0EB60067E0A7F0080047E2A7F0090DF1DEEF090DF1FCC
:20035100741FF090DF237488F090DF247431F090DF257409F002048A90DF077406F090DF83
:2003710008E4F090DF0C74CAF090DF0D7483F090DF0E7413F090DF0F7422F090DF1074F8A1
:20039100F090DF117434F090DF1A7456F090DF1B7410F090DF147418F090DF157416F09076
:2003B100DF16746CF090DF177443F090DF187440F090DF197491F090DF1C74E9F0EB600669
:2003D1007E0A7F0080047E2A7F0090DF1DEEF090DF1F741FF090DF237481F090DF2474352C
:2003F100F090DF257409F002048A90DF077406F090DF08E4F090DF0C74F5F090DF0D7483F9
:20041100F090DF0E7413F090DF0F7422F090DF1074F8F090DF117415F090DF1A7456F0903C
:20043100DF1B7410F090DF147418F090DF157416F090DF16746CF090DF177403F090DF1877
:200451007440F090DF197491F090DF1C74E9F0EB60067E0A7F0080047E2A7F0090DF1DEE15
:20047100F090DF1F741FF090DF237481F090DF247435F090DF257409F090DF06E4F090DF0E
:20049100137430F090DF2F740BF090DF317406F090DF037404F090DF047445F090DF05E43F
:2004B100F090DF027411F022E582FF7001227E008F04EE5401A2E0CC13CC13CCFD7B007AE8
:2004D100008F118E1290003BC005C004C003C002120751AE82AF83D002D003D004D0058E4A
:2004F10000EFF93395E0FEFFE82CF8E93DF9EE3BFEEF3AFFE5C65403FD8DF005F0AC00AD1A
:2005110001800DC3EF13FFEE13FEED13FDEC13FCD5F0F08C008D018E028F031CBCFF091D93
:0F053100BDFF051EBEFF011FE8494A4B70E522C2
:20054000AE82AF837C007D00C3EC9EED64808FF063F08095F0501D7A007B00C3EA94F4EBC9
:200560006480948150070ABA00F10B80EE0CBC00D70D80D4227511037512001207B3AE82CF
:20058000AF837C007D00C3EC9EED64808FF063F08095F050070CBC00ED0D80EA22E582FF30
:2005A0007001227E008F04EE5401A2E0CC13CC13CCFD7B007A008F118E1290003BC005C0C6
:2005C00004C003C002120751AE82AF83D002D003D004D0058E00EFF93395E0FEFFE82CF851
:2005E000E93DF9EE3BFEEF3AFFE5C65403FD8DF005F0AC00AD01800DC3EF13FFEE13FEED85
:2006000013FDEC13FCD5F0F08C008D018E028F031CBCFF091DBDFF051EBEFF011FE8494AAA
:040620004B70E52214
:04000000020089323F
:01000B0032C2
:0100130032BA
:01001B0032B2
:0100230032AA
:01002B0032A2
:01003300329A
:01003B003292
:01004300328A
:01004B003282
:01005300327A
:01005B003272
:01006300326A
:01006B003262
:01007300325A
:01007B003252
:030083000206244E
:0900E800750B00750C0002008686
:030086000206432C
:20062400C0E0C0D053E9EF539BFC7420B50D05750C018006750B0175E104D0D0D0E032753C
:200644000E0E750FA575105A7F30750D1053F4F743FE08C293758200C0071201C575113801
:200664007512F675130D75140090D09075F003E41201E67582101200F1439A01759110D2D6
:20068400AF90F0087411F090F009745AF090F00AF4F07511EF7512077513807514057515D2
:2006A4000090F00B75F0001206E1D00790F0107430F043D60175E10375E901E50B60FC75BF
:1D06C4000B00B29390000AC007120540D0078F060F90F010EEF0BF3AD97F3080D552
:0607EF0048656C6C6F0010
:0600B800E478FFF6D8FD1C
:2006E100AD82AE83AFF08D168E178F1885111985121A85131BA814A9158803890418B8FF97
:200701000119EB4C6025851982851A83851BF0120797FCA385821985831A8D828E838FF000
:15072100EC120736A3AD82AE8380CE8516828517838518F0224C
:200096007900E94400601B7A009007F5781C7593F0E493F2A308B800020593D9F4DAF27523
:0200B60093FFB6
:1B07360020F71130F6138883A88220F509F6A8837583002280FEF280F5F022C2
:1D075100E5828511F0A4C582C0F08512F0A4D0F025F0C5838511F0A42583F583224F
:2000BE007800E84400600A79007593F0E4F309D8FC781CE84400600C790190F000E4F0A352
:0400DE00D8FCD9FA77
:20076E007A10E4FBFCE58225E0F582E58333F583EB33FBEC33FCEB9511F5F0EC951240068D
:09078E00FCABF0438201DADD222C
:0D00890075811B1207EBE582600302008603
:1C07970020F71430F6148883A88220F507E6A88375830022E280F7E49322E02271
:2007B300C2D5E58330E70DD2D5E4C39582F582E49583F583E51230E70DB2D5E4C39511F5CF
:1807D30011E49512F51212076E30D50BE4C39582F582E49583F5832209
:0407EB0075820022F1
:00000001FF
